{
  "contractName": "DBlogger",
  "abi": [
    {
      "inputs": [],
      "payable": false,
      "stateMutability": "nonpayable",
      "type": "constructor"
    },
    {
      "constant": false,
      "inputs": [
        {
          "internalType": "string",
          "name": "_content_hash",
          "type": "string"
        }
      ],
      "name": "addPost",
      "outputs": [
        {
          "internalType": "uint256",
          "name": "postID",
          "type": "uint256"
        }
      ],
      "payable": false,
      "stateMutability": "nonpayable",
      "type": "function"
    },
    {
      "constant": false,
      "inputs": [
        {
          "internalType": "string",
          "name": "_name",
          "type": "string"
        },
        {
          "internalType": "string",
          "name": "_profile_hash",
          "type": "string"
        }
      ],
      "name": "registerUser",
      "outputs": [],
      "payable": false,
      "stateMutability": "nonpayable",
      "type": "function"
    },
    {
      "constant": false,
      "inputs": [
        {
          "internalType": "address",
          "name": "id",
          "type": "address"
        }
      ],
      "name": "makeAdmin",
      "outputs": [],
      "payable": false,
      "stateMutability": "nonpayable",
      "type": "function"
    },
    {
      "constant": false,
      "inputs": [
        {
          "internalType": "uint256",
          "name": "postID",
          "type": "uint256"
        },
        {
          "internalType": "string",
          "name": "_content_hash",
          "type": "string"
        }
      ],
      "name": "editPost",
      "outputs": [],
      "payable": false,
      "stateMutability": "nonpayable",
      "type": "function"
    },
    {
      "constant": false,
      "inputs": [
        {
          "internalType": "string",
          "name": "_name",
          "type": "string"
        },
        {
          "internalType": "string",
          "name": "_profile_hash",
          "type": "string"
        }
      ],
      "name": "editUser",
      "outputs": [],
      "payable": false,
      "stateMutability": "nonpayable",
      "type": "function"
    },
    {
      "constant": false,
      "inputs": [
        {
          "internalType": "address",
          "name": "id",
          "type": "address"
        },
        {
          "internalType": "enum DBlogger.Role",
          "name": "_role",
          "type": "uint8"
        }
      ],
      "name": "editUserRole",
      "outputs": [],
      "payable": false,
      "stateMutability": "nonpayable",
      "type": "function"
    },
    {
      "constant": false,
      "inputs": [
        {
          "internalType": "uint256",
          "name": "postID",
          "type": "uint256"
        }
      ],
      "name": "deletePost",
      "outputs": [],
      "payable": false,
      "stateMutability": "nonpayable",
      "type": "function"
    },
    {
      "constant": false,
      "inputs": [
        {
          "internalType": "address",
          "name": "id",
          "type": "address"
        }
      ],
      "name": "deleteUser",
      "outputs": [],
      "payable": false,
      "stateMutability": "nonpayable",
      "type": "function"
    },
    {
      "constant": true,
      "inputs": [],
      "name": "getMyProfile",
      "outputs": [
        {
          "components": [
            {
              "internalType": "bool",
              "name": "isValue",
              "type": "bool"
            },
            {
              "internalType": "address",
              "name": "id",
              "type": "address"
            },
            {
              "internalType": "string",
              "name": "name",
              "type": "string"
            },
            {
              "internalType": "string",
              "name": "profile_hash",
              "type": "string"
            },
            {
              "internalType": "enum DBlogger.Role",
              "name": "role",
              "type": "uint8"
            }
          ],
          "internalType": "struct DBlogger.User",
          "name": "user",
          "type": "tuple"
        }
      ],
      "payable": false,
      "stateMutability": "view",
      "type": "function"
    },
    {
      "constant": true,
      "inputs": [
        {
          "internalType": "address",
          "name": "id",
          "type": "address"
        }
      ],
      "name": "getUser",
      "outputs": [
        {
          "components": [
            {
              "internalType": "bool",
              "name": "isValue",
              "type": "bool"
            },
            {
              "internalType": "address",
              "name": "id",
              "type": "address"
            },
            {
              "internalType": "string",
              "name": "name",
              "type": "string"
            },
            {
              "internalType": "string",
              "name": "profile_hash",
              "type": "string"
            },
            {
              "internalType": "enum DBlogger.Role",
              "name": "role",
              "type": "uint8"
            }
          ],
          "internalType": "struct DBlogger.User",
          "name": "",
          "type": "tuple"
        }
      ],
      "payable": false,
      "stateMutability": "view",
      "type": "function"
    },
    {
      "constant": true,
      "inputs": [],
      "name": "getAllUser",
      "outputs": [
        {
          "components": [
            {
              "internalType": "bool",
              "name": "isValue",
              "type": "bool"
            },
            {
              "internalType": "address",
              "name": "id",
              "type": "address"
            },
            {
              "internalType": "string",
              "name": "name",
              "type": "string"
            },
            {
              "internalType": "string",
              "name": "profile_hash",
              "type": "string"
            },
            {
              "internalType": "enum DBlogger.Role",
              "name": "role",
              "type": "uint8"
            }
          ],
          "internalType": "struct DBlogger.User[]",
          "name": "",
          "type": "tuple[]"
        },
        {
          "internalType": "uint256",
          "name": "count",
          "type": "uint256"
        }
      ],
      "payable": false,
      "stateMutability": "view",
      "type": "function"
    },
    {
      "constant": true,
      "inputs": [
        {
          "internalType": "uint256",
          "name": "postID",
          "type": "uint256"
        }
      ],
      "name": "getPost",
      "outputs": [
        {
          "components": [
            {
              "internalType": "bool",
              "name": "isValue",
              "type": "bool"
            },
            {
              "internalType": "address",
              "name": "author",
              "type": "address"
            },
            {
              "internalType": "string",
              "name": "content_hash",
              "type": "string"
            }
          ],
          "internalType": "struct DBlogger.Post",
          "name": "",
          "type": "tuple"
        }
      ],
      "payable": false,
      "stateMutability": "view",
      "type": "function"
    },
    {
      "constant": true,
      "inputs": [],
      "name": "getAllPost",
      "outputs": [
        {
          "components": [
            {
              "internalType": "bool",
              "name": "isValue",
              "type": "bool"
            },
            {
              "internalType": "address",
              "name": "author",
              "type": "address"
            },
            {
              "internalType": "string",
              "name": "content_hash",
              "type": "string"
            }
          ],
          "internalType": "struct DBlogger.Post[]",
          "name": "",
          "type": "tuple[]"
        },
        {
          "internalType": "uint256[]",
          "name": "",
          "type": "uint256[]"
        }
      ],
      "payable": false,
      "stateMutability": "view",
      "type": "function"
    },
    {
      "constant": true,
      "inputs": [
        {
          "internalType": "address",
          "name": "id",
          "type": "address"
        },
        {
          "internalType": "uint256",
          "name": "startIndex",
          "type": "uint256"
        }
      ],
      "name": "getAllPostAuthor",
      "outputs": [
        {
          "components": [
            {
              "internalType": "bool",
              "name": "isValue",
              "type": "bool"
            },
            {
              "internalType": "address",
              "name": "author",
              "type": "address"
            },
            {
              "internalType": "string",
              "name": "content_hash",
              "type": "string"
            }
          ],
          "internalType": "struct DBlogger.Post[100]",
          "name": "",
          "type": "tuple[100]"
        },
        {
          "internalType": "uint256",
          "name": "nextIndex",
          "type": "uint256"
        }
      ],
      "payable": false,
      "stateMutability": "view",
      "type": "function"
    },
    {
      "constant": true,
      "inputs": [
        {
          "internalType": "enum DBlogger.Role",
          "name": "role",
          "type": "uint8"
        }
      ],
      "name": "getRoleName",
      "outputs": [
        {
          "internalType": "string",
          "name": "",
          "type": "string"
        }
      ],
      "payable": false,
      "stateMutability": "pure",
      "type": "function"
    }
  ],
  "bytecode": "0x60806040523480156200001157600080fd5b5060033390806001815401808255809150509060018203906000526020600020016000909192909190916101000a81548173ffffffffffffffffffffffffffffffffffffffff021916908373ffffffffffffffffffffffffffffffffffffffff160217905550506040518060a001604052806001151581526020013373ffffffffffffffffffffffffffffffffffffffff1681526020016040518060400160405280600581526020017f41646d696e0000000000000000000000000000000000000000000000000000008152508152602001604051806020016040528060008152508152602001600060038111156200010657fe5b815250600460003373ffffffffffffffffffffffffffffffffffffffff1673ffffffffffffffffffffffffffffffffffffffff16815260200190815260200160002060008201518160000160006101000a81548160ff02191690831515021790555060208201518160000160016101000a81548173ffffffffffffffffffffffffffffffffffffffff021916908373ffffffffffffffffffffffffffffffffffffffff1602179055506040820151816001019080519060200190620001cd92919062000220565b506060820151816002019080519060200190620001ec92919062000220565b5060808201518160030160006101000a81548160ff021916908360038111156200021257fe5b0217905550905050620002cf565b828054600181600116156101000203166002900490600052602060002090601f016020900481019282601f106200026357805160ff191683800117855562000294565b8280016001018555821562000294579182015b828111156200029357825182559160200191906001019062000276565b5b509050620002a39190620002a7565b5090565b620002cc91905b80821115620002c8576000816000905550600101620002ae565b5090565b90565b61435180620002df6000396000f3fe608060405234801561001057600080fd5b50600436106100f55760003560e01c8063539f97ac11610097578063d5afdbb011610066578063d5afdbb014610284578063da7d9d10146102b4578063f35e237b146102d3578063fa99654a146102ef576100f5565b8063539f97ac146101ec5780635c60f226146102085780636f77926b14610224578063a632281914610254576100f5565b806333dd6305116100d357806333dd63051461015057806340731c2414610181578063472905ca146101b157806347531df8146101cd576100f5565b8063094cd5ee146100fa5780631d2e4afd1461011657806321527e5014610132575b600080fd5b610114600480360361010f9190810190613829565b61030b565b005b610130600480360361012b91908101906137b4565b610a8d565b005b61013a610d2d565b60405161014791906140c5565b60405180910390f35b61016a6004803603610165919081019061370a565b610ff8565b604051610178929190613f0a565b60405180910390f35b61019b60048036036101969190810190613829565b611307565b6040516101a891906140a3565b60405180910390f35b6101cb60048036036101c691908101906136a5565b611447565b005b6101d56117a3565b6040516101e3929190613f71565b60405180910390f35b610206600480360361020191908101906136ce565b611a96565b005b610222600480360361021d91908101906136a5565b611ed6565b005b61023e600480360361023991908101906136a5565b6123c0565b60405161024b91906140c5565b60405180910390f35b61026e6004803603610269919081019061376f565b6125fb565b60405161027b91906140e7565b60405180910390f35b61029e60048036036102999190810190613746565b612a65565b6040516102ab9190613fa1565b60405180910390f35b6102bc612bdc565b6040516102ca929190613f3a565b60405180910390f35b6102ed60048036036102e891908101906137b4565b612e18565b005b61030960048036036103049190810190613852565b612f18565b005b61031361336b565b600460003373ffffffffffffffffffffffffffffffffffffffff1673ffffffffffffffffffffffffffffffffffffffff1681526020019081526020016000206040518060a00160405290816000820160009054906101000a900460ff161515151581526020016000820160019054906101000a900473ffffffffffffffffffffffffffffffffffffffff1673ffffffffffffffffffffffffffffffffffffffff1673ffffffffffffffffffffffffffffffffffffffff168152602001600182018054600181600116156101000203166002900480601f0160208091040260200160405190810160405280929190818152602001828054600181600116156101000203166002900480156104675780601f1061043c57610100808354040283529160200191610467565b820191906000526020600020905b81548152906001019060200180831161044a57829003601f168201915b50505050508152602001600282018054600181600116156101000203166002900480601f0160208091040260200160405190810160405280929190818152602001828054600181600116156101000203166002900480156105095780601f106104de57610100808354040283529160200191610509565b820191906000526020600020905b8154815290600101906020018083116104ec57829003601f168201915b505050505081526020016003820160009054906101000a900460ff16600381111561053057fe5b600381111561053b57fe5b815250509050806000015115610a89576002600381111561055857fe5b8160800151600381111561056857fe5b148061058e57506001600381111561057c57fe5b8160800151600381111561058c57fe5b145b806105b35750600060038111156105a157fe5b816080015160038111156105b157fe5b145b15610a88576001600083815260200190815260200160002060000160009054906101000a900460ff1661061b576040517f08c379a000000000000000000000000000000000000000000000000000000000815260040161061290614043565b60405180910390fd5b6106236133bd565b600160008481526020019081526020016000206040518060600160405290816000820160009054906101000a900460ff161515151581526020016000820160019054906101000a900473ffffffffffffffffffffffffffffffffffffffff1673ffffffffffffffffffffffffffffffffffffffff1673ffffffffffffffffffffffffffffffffffffffff168152602001600182018054600181600116156101000203166002900480601f01602080910402602001604051908101604052809291908181526020018280546001816001161561010002031660029004801561074b5780601f106107205761010080835404028352916020019161074b565b820191906000526020600020905b81548152906001019060200180831161072e57829003601f168201915b505050505081525050905061075e61336b565b600460003373ffffffffffffffffffffffffffffffffffffffff1673ffffffffffffffffffffffffffffffffffffffff1681526020019081526020016000206040518060a00160405290816000820160009054906101000a900460ff161515151581526020016000820160019054906101000a900473ffffffffffffffffffffffffffffffffffffffff1673ffffffffffffffffffffffffffffffffffffffff1673ffffffffffffffffffffffffffffffffffffffff168152602001600182018054600181600116156101000203166002900480601f0160208091040260200160405190810160405280929190818152602001828054600181600116156101000203166002900480156108b25780601f10610887576101008083540402835291602001916108b2565b820191906000526020600020905b81548152906001019060200180831161089557829003601f168201915b50505050508152602001600282018054600181600116156101000203166002900480601f0160208091040260200160405190810160405280929190818152602001828054600181600116156101000203166002900480156109545780601f1061092957610100808354040283529160200191610954565b820191906000526020600020905b81548152906001019060200180831161093757829003601f168201915b505050505081526020016003820160009054906101000a900460ff16600381111561097b57fe5b600381111561098657fe5b8152505090503373ffffffffffffffffffffffffffffffffffffffff16826020015173ffffffffffffffffffffffffffffffffffffffff1614806109e55750600260038111156109d257fe5b816080015160038111156109e257fe5b14155b610a24576040517f08c379a0000000000000000000000000000000000000000000000000000000008152600401610a1b90613fe3565b60405180910390fd5b60016000858152602001908152602001600020600080820160006101000a81549060ff02191690556000820160016101000a81549073ffffffffffffffffffffffffffffffffffffffff0219169055600182016000610a8391906133f6565b505050505b5b5050565b600460003373ffffffffffffffffffffffffffffffffffffffff1673ffffffffffffffffffffffffffffffffffffffff16815260200190815260200160002060000160009054906101000a900460ff16610d275760033390806001815401808255809150509060018203906000526020600020016000909192909190916101000a81548173ffffffffffffffffffffffffffffffffffffffff021916908373ffffffffffffffffffffffffffffffffffffffff160217905550506040518060a001604052806001151581526020013373ffffffffffffffffffffffffffffffffffffffff16815260200185858080601f016020809104026020016040519081016040528093929190818152602001838380828437600081840152601f19601f82011690508083019250505050505050815260200183838080601f016020809104026020016040519081016040528093929190818152602001838380828437600081840152601f19601f820116905080830192505050505050508152602001600380811115610c1757fe5b815250600460003373ffffffffffffffffffffffffffffffffffffffff1673ffffffffffffffffffffffffffffffffffffffff16815260200190815260200160002060008201518160000160006101000a81548160ff02191690831515021790555060208201518160000160016101000a81548173ffffffffffffffffffffffffffffffffffffffff021916908373ffffffffffffffffffffffffffffffffffffffff1602179055506040820151816001019080519060200190610cdc92919061343e565b506060820151816002019080519060200190610cf992919061343e565b5060808201518160030160006101000a81548160ff02191690836003811115610d1e57fe5b02179055509050505b50505050565b610d3561336b565b600460003373ffffffffffffffffffffffffffffffffffffffff1673ffffffffffffffffffffffffffffffffffffffff16815260200190815260200160002060000160009054906101000a900460ff16610dc4576040517f08c379a0000000000000000000000000000000000000000000000000000000008152600401610dbb90613fc3565b60405180910390fd5b600460003373ffffffffffffffffffffffffffffffffffffffff1673ffffffffffffffffffffffffffffffffffffffff1681526020019081526020016000206040518060a00160405290816000820160009054906101000a900460ff161515151581526020016000820160019054906101000a900473ffffffffffffffffffffffffffffffffffffffff1673ffffffffffffffffffffffffffffffffffffffff1673ffffffffffffffffffffffffffffffffffffffff168152602001600182018054600181600116156101000203166002900480601f016020809104026020016040519081016040528092919081815260200182805460018160011615610100020316600290048015610f185780601f10610eed57610100808354040283529160200191610f18565b820191906000526020600020905b815481529060010190602001808311610efb57829003601f168201915b50505050508152602001600282018054600181600116156101000203166002900480601f016020809104026020016040519081016040528092919081815260200182805460018160011615610100020316600290048015610fba5780601f10610f8f57610100808354040283529160200191610fba565b820191906000526020600020905b815481529060010190602001808311610f9d57829003601f168201915b505050505081526020016003820160009054906101000a900460ff166003811115610fe157fe5b6003811115610fec57fe5b81525050905080905090565b6110006134be565b6000600460008573ffffffffffffffffffffffffffffffffffffffff1673ffffffffffffffffffffffffffffffffffffffff16815260200190815260200160002060000160009054906101000a900460ff16611091576040517f08c379a000000000000000000000000000000000000000000000000000000000815260040161108890614063565b60405180910390fd5b6110996134be565b60009150600080905060028054905085106110bb578183935093505050611300565b60008090505b6002805490508110156112dd5785811015801561115657508673ffffffffffffffffffffffffffffffffffffffff16600160006002848154811061110157fe5b9060005260206000200154815260200190815260200160002060000160019054906101000a900473ffffffffffffffffffffffffffffffffffffffff1673ffffffffffffffffffffffffffffffffffffffff16145b156112c057600160006002838154811061116c57fe5b906000526020600020015481526020019081526020016000206040518060600160405290816000820160009054906101000a900460ff161515151581526020016000820160019054906101000a900473ffffffffffffffffffffffffffffffffffffffff1673ffffffffffffffffffffffffffffffffffffffff1673ffffffffffffffffffffffffffffffffffffffff168152602001600182018054600181600116156101000203166002900480601f01602080910402602001604051908101604052809291908181526020018280546001816001161561010002031660029004801561129a5780601f1061126f5761010080835404028352916020019161129a565b820191906000526020600020905b81548152906001019060200180831161127d57829003601f168201915b5050505050815250508382606481106112af57fe5b602002018190525081806001019250505b809350606482106112d0576112dd565b80806001019150506110c1565b50828060010193505060028054905083106112f757600092505b81839350935050505b9250929050565b61130f6133bd565b600160008381526020019081526020016000206040518060600160405290816000820160009054906101000a900460ff161515151581526020016000820160019054906101000a900473ffffffffffffffffffffffffffffffffffffffff1673ffffffffffffffffffffffffffffffffffffffff1673ffffffffffffffffffffffffffffffffffffffff168152602001600182018054600181600116156101000203166002900480601f0160208091040260200160405190810160405280929190818152602001828054600181600116156101000203166002900480156114375780601f1061140c57610100808354040283529160200191611437565b820191906000526020600020905b81548152906001019060200180831161141a57829003601f168201915b5050505050815250509050919050565b61144f61336b565b600460003373ffffffffffffffffffffffffffffffffffffffff1673ffffffffffffffffffffffffffffffffffffffff1681526020019081526020016000206040518060a00160405290816000820160009054906101000a900460ff161515151581526020016000820160019054906101000a900473ffffffffffffffffffffffffffffffffffffffff1673ffffffffffffffffffffffffffffffffffffffff1673ffffffffffffffffffffffffffffffffffffffff168152602001600182018054600181600116156101000203166002900480601f0160208091040260200160405190810160405280929190818152602001828054600181600116156101000203166002900480156115a35780601f10611578576101008083540402835291602001916115a3565b820191906000526020600020905b81548152906001019060200180831161158657829003601f168201915b50505050508152602001600282018054600181600116156101000203166002900480601f0160208091040260200160405190810160405280929190818152602001828054600181600116156101000203166002900480156116455780601f1061161a57610100808354040283529160200191611645565b820191906000526020600020905b81548152906001019060200180831161162857829003601f168201915b505050505081526020016003820160009054906101000a900460ff16600381111561166c57fe5b600381111561167757fe5b81525050905080600001511561179f576000600381111561169457fe5b816080015160038111156116a457fe5b141561179e57600460008373ffffffffffffffffffffffffffffffffffffffff1673ffffffffffffffffffffffffffffffffffffffff16815260200190815260200160002060000160009054906101000a900460ff16611739576040517f08c379a000000000000000000000000000000000000000000000000000000000815260040161173090614023565b60405180910390fd5b6000600460008473ffffffffffffffffffffffffffffffffffffffff1673ffffffffffffffffffffffffffffffffffffffff16815260200190815260200160002060030160006101000a81548160ff0219169083600381111561179857fe5b02179055505b5b5050565b6060600060606003805490506040519080825280602002602001820160405280156117e857816020015b6117d56134ec565b8152602001906001900390816117cd5790505b50905060008090505b600380549050811015611a8557600460006003838154811061180f57fe5b9060005260206000200160009054906101000a900473ffffffffffffffffffffffffffffffffffffffff1673ffffffffffffffffffffffffffffffffffffffff1673ffffffffffffffffffffffffffffffffffffffff1681526020019081526020016000206040518060a00160405290816000820160009054906101000a900460ff161515151581526020016000820160019054906101000a900473ffffffffffffffffffffffffffffffffffffffff1673ffffffffffffffffffffffffffffffffffffffff1673ffffffffffffffffffffffffffffffffffffffff168152602001600182018054600181600116156101000203166002900480601f0160208091040260200160405190810160405280929190818152602001828054600181600116156101000203166002900480156119895780601f1061195e57610100808354040283529160200191611989565b820191906000526020600020905b81548152906001019060200180831161196c57829003601f168201915b50505050508152602001600282018054600181600116156101000203166002900480601f016020809104026020016040519081016040528092919081815260200182805460018160011615610100020316600290048015611a2b5780601f10611a0057610100808354040283529160200191611a2b565b820191906000526020600020905b815481529060010190602001808311611a0e57829003601f168201915b505050505081526020016003820160009054906101000a900460ff166003811115611a5257fe5b6003811115611a5d57fe5b81525050828281518110611a6d57fe5b602002602001018190525080806001019150506117f1565b508060038054905092509250509091565b611a9e61336b565b600460003373ffffffffffffffffffffffffffffffffffffffff1673ffffffffffffffffffffffffffffffffffffffff1681526020019081526020016000206040518060a00160405290816000820160009054906101000a900460ff161515151581526020016000820160019054906101000a900473ffffffffffffffffffffffffffffffffffffffff1673ffffffffffffffffffffffffffffffffffffffff1673ffffffffffffffffffffffffffffffffffffffff168152602001600182018054600181600116156101000203166002900480601f016020809104026020016040519081016040528092919081815260200182805460018160011615610100020316600290048015611bf25780601f10611bc757610100808354040283529160200191611bf2565b820191906000526020600020905b815481529060010190602001808311611bd557829003601f168201915b50505050508152602001600282018054600181600116156101000203166002900480601f016020809104026020016040519081016040528092919081815260200182805460018160011615610100020316600290048015611c945780601f10611c6957610100808354040283529160200191611c94565b820191906000526020600020905b815481529060010190602001808311611c7757829003601f168201915b505050505081526020016003820160009054906101000a900460ff166003811115611cbb57fe5b6003811115611cc657fe5b815250509050806000015115611ed15760006003811115611ce357fe5b81608001516003811115611cf357fe5b1415611ed05760001515600460008573ffffffffffffffffffffffffffffffffffffffff1673ffffffffffffffffffffffffffffffffffffffff16815260200190815260200160002060000160009054906101000a900460ff16151514611d8f576040517f08c379a0000000000000000000000000000000000000000000000000000000008152600401611d8690613fc3565b60405180910390fd5b60006003811115611d9c57fe5b600460008573ffffffffffffffffffffffffffffffffffffffff1673ffffffffffffffffffffffffffffffffffffffff16815260200190815260200160002060030160009054906101000a900460ff166003811115611df757fe5b1415611e6c573373ffffffffffffffffffffffffffffffffffffffff168373ffffffffffffffffffffffffffffffffffffffff1614611e6b576040517f08c379a0000000000000000000000000000000000000000000000000000000008152600401611e6290614083565b60405180910390fd5b5b81600460008573ffffffffffffffffffffffffffffffffffffffff1673ffffffffffffffffffffffffffffffffffffffff16815260200190815260200160002060030160006101000a81548160ff02191690836003811115611eca57fe5b02179055505b5b505050565b3373ffffffffffffffffffffffffffffffffffffffff168173ffffffffffffffffffffffffffffffffffffffff161480611f75575060006003811115611f1857fe5b600460003373ffffffffffffffffffffffffffffffffffffffff1673ffffffffffffffffffffffffffffffffffffffff16815260200190815260200160002060030160009054906101000a900460ff166003811115611f7357fe5b145b611fb4576040517f08c379a0000000000000000000000000000000000000000000000000000000008152600401611fab90614083565b60405180910390fd5b60006003811115611fc157fe5b600460003373ffffffffffffffffffffffffffffffffffffffff1673ffffffffffffffffffffffffffffffffffffffff16815260200190815260200160002060030160009054906101000a900460ff16600381111561201c57fe5b1415612091573373ffffffffffffffffffffffffffffffffffffffff168173ffffffffffffffffffffffffffffffffffffffff1614612090576040517f08c379a000000000000000000000000000000000000000000000000000000000815260040161208790614083565b60405180910390fd5b5b61209961336b565b600460008373ffffffffffffffffffffffffffffffffffffffff1673ffffffffffffffffffffffffffffffffffffffff1681526020019081526020016000206040518060a00160405290816000820160009054906101000a900460ff161515151581526020016000820160019054906101000a900473ffffffffffffffffffffffffffffffffffffffff1673ffffffffffffffffffffffffffffffffffffffff1673ffffffffffffffffffffffffffffffffffffffff168152602001600182018054600181600116156101000203166002900480601f0160208091040260200160405190810160405280929190818152602001828054600181600116156101000203166002900480156121ed5780601f106121c2576101008083540402835291602001916121ed565b820191906000526020600020905b8154815290600101906020018083116121d057829003601f168201915b50505050508152602001600282018054600181600116156101000203166002900480601f01602080910402602001604051908101604052809291908181526020018280546001816001161561010002031660029004801561228f5780601f106122645761010080835404028352916020019161228f565b820191906000526020600020905b81548152906001019060200180831161227257829003601f168201915b505050505081526020016003820160009054906101000a900460ff1660038111156122b657fe5b60038111156122c157fe5b815250509050806000015161230b576040517f08c379a000000000000000000000000000000000000000000000000000000000815260040161230290614003565b60405180910390fd5b600460008373ffffffffffffffffffffffffffffffffffffffff1673ffffffffffffffffffffffffffffffffffffffff168152602001908152602001600020600080820160006101000a81549060ff02191690556000820160016101000a81549073ffffffffffffffffffffffffffffffffffffffff021916905560018201600061239691906133f6565b6002820160006123a691906133f6565b6003820160006101000a81549060ff021916905550505050565b6123c861336b565b600460008373ffffffffffffffffffffffffffffffffffffffff1673ffffffffffffffffffffffffffffffffffffffff1681526020019081526020016000206040518060a00160405290816000820160009054906101000a900460ff161515151581526020016000820160019054906101000a900473ffffffffffffffffffffffffffffffffffffffff1673ffffffffffffffffffffffffffffffffffffffff1673ffffffffffffffffffffffffffffffffffffffff168152602001600182018054600181600116156101000203166002900480601f01602080910402602001604051908101604052809291908181526020018280546001816001161561010002031660029004801561251c5780601f106124f15761010080835404028352916020019161251c565b820191906000526020600020905b8154815290600101906020018083116124ff57829003601f168201915b50505050508152602001600282018054600181600116156101000203166002900480601f0160208091040260200160405190810160405280929190818152602001828054600181600116156101000203166002900480156125be5780601f10612593576101008083540402835291602001916125be565b820191906000526020600020905b8154815290600101906020018083116125a157829003601f168201915b505050505081526020016003820160009054906101000a900460ff1660038111156125e557fe5b60038111156125f057fe5b815250509050919050565b600061260561336b565b600460003373ffffffffffffffffffffffffffffffffffffffff1673ffffffffffffffffffffffffffffffffffffffff1681526020019081526020016000206040518060a00160405290816000820160009054906101000a900460ff161515151581526020016000820160019054906101000a900473ffffffffffffffffffffffffffffffffffffffff1673ffffffffffffffffffffffffffffffffffffffff1673ffffffffffffffffffffffffffffffffffffffff168152602001600182018054600181600116156101000203166002900480601f0160208091040260200160405190810160405280929190818152602001828054600181600116156101000203166002900480156127595780601f1061272e57610100808354040283529160200191612759565b820191906000526020600020905b81548152906001019060200180831161273c57829003601f168201915b50505050508152602001600282018054600181600116156101000203166002900480601f0160208091040260200160405190810160405280929190818152602001828054600181600116156101000203166002900480156127fb5780601f106127d0576101008083540402835291602001916127fb565b820191906000526020600020905b8154815290600101906020018083116127de57829003601f168201915b505050505081526020016003820160009054906101000a900460ff16600381111561282257fe5b600381111561282d57fe5b815250509050806000015115612a5e576002600381111561284a57fe5b8160800151600381111561285a57fe5b148061288057506001600381111561286e57fe5b8160800151600381111561287e57fe5b145b806128a557506000600381111561289357fe5b816080015160038111156128a357fe5b145b15612a5d5760008081548092919060010191905055915060028290806001815401808255809150509060018203906000526020600020016000909192909190915055506040518060600160405280600115158152602001600460003373ffffffffffffffffffffffffffffffffffffffff1673ffffffffffffffffffffffffffffffffffffffff16815260200190815260200160002060000160019054906101000a900473ffffffffffffffffffffffffffffffffffffffff1673ffffffffffffffffffffffffffffffffffffffff16815260200185858080601f016020809104026020016040519081016040528093929190818152602001838380828437600081840152601f19601f820116905080830192505050505050508152506001600084815260200190815260200160002060008201518160000160006101000a81548160ff02191690831515021790555060208201518160000160016101000a81548173ffffffffffffffffffffffffffffffffffffffff021916908373ffffffffffffffffffffffffffffffffffffffff1602179055506040820151816001019080519060200190612a5892919061343e565b509050505b5b5092915050565b606060006003811115612a7457fe5b826003811115612a8057fe5b1415612ac3576040518060400160405280600581526020017f41646d696e0000000000000000000000000000000000000000000000000000008152509050612bd7565b60016003811115612ad057fe5b826003811115612adc57fe5b1415612b1f576040518060400160405280600681526020017f456469746f7200000000000000000000000000000000000000000000000000008152509050612bd7565b60026003811115612b2c57fe5b826003811115612b3857fe5b1415612b7b576040518060400160405280600681526020017f417574686f7200000000000000000000000000000000000000000000000000008152509050612bd7565b600380811115612b8757fe5b826003811115612b9357fe5b1415612bd6576040518060400160405280600a81526020017f53756273637269626572000000000000000000000000000000000000000000008152509050612bd7565b5b919050565b6060806060600280549050604051908082528060200260200182016040528015612c2057816020015b612c0d61353e565b815260200190600190039081612c055790505b5090506060600280549050604051908082528060200260200182016040528015612c595781602001602082028038833980820191505090505b50905060008090505b600280549050811015612e0b576001600060028381548110612c8057fe5b906000526020600020015481526020019081526020016000206040518060600160405290816000820160009054906101000a900460ff161515151581526020016000820160019054906101000a900473ffffffffffffffffffffffffffffffffffffffff1673ffffffffffffffffffffffffffffffffffffffff1673ffffffffffffffffffffffffffffffffffffffff168152602001600182018054600181600116156101000203166002900480601f016020809104026020016040519081016040528092919081815260200182805460018160011615610100020316600290048015612dae5780601f10612d8357610100808354040283529160200191612dae565b820191906000526020600020905b815481529060010190602001808311612d9157829003601f168201915b505050505081525050838281518110612dc357fe5b602002602001018190525060028181548110612ddb57fe5b9060005260206000200154828281518110612df257fe5b6020026020010181815250508080600101915050612c62565b5081819350935050509091565b600460003373ffffffffffffffffffffffffffffffffffffffff1673ffffffffffffffffffffffffffffffffffffffff16815260200190815260200160002060000160009054906101000a900460ff1615612f12578383600460003373ffffffffffffffffffffffffffffffffffffffff1673ffffffffffffffffffffffffffffffffffffffff1681526020019081526020016000206001019190612ebe929190613577565b508181600460003373ffffffffffffffffffffffffffffffffffffffff1673ffffffffffffffffffffffffffffffffffffffff1681526020019081526020016000206002019190612f10929190613577565b505b50505050565b612f2061336b565b600460003373ffffffffffffffffffffffffffffffffffffffff1673ffffffffffffffffffffffffffffffffffffffff1681526020019081526020016000206040518060a00160405290816000820160009054906101000a900460ff161515151581526020016000820160019054906101000a900473ffffffffffffffffffffffffffffffffffffffff1673ffffffffffffffffffffffffffffffffffffffff1673ffffffffffffffffffffffffffffffffffffffff168152602001600182018054600181600116156101000203166002900480601f0160208091040260200160405190810160405280929190818152602001828054600181600116156101000203166002900480156130745780601f1061304957610100808354040283529160200191613074565b820191906000526020600020905b81548152906001019060200180831161305757829003601f168201915b50505050508152602001600282018054600181600116156101000203166002900480601f0160208091040260200160405190810160405280929190818152602001828054600181600116156101000203166002900480156131165780601f106130eb57610100808354040283529160200191613116565b820191906000526020600020905b8154815290600101906020018083116130f957829003601f168201915b505050505081526020016003820160009054906101000a900460ff16600381111561313d57fe5b600381111561314857fe5b815250509050806000015115613365576002600381111561316557fe5b8160800151600381111561317557fe5b148061319b57506001600381111561318957fe5b8160800151600381111561319957fe5b145b806131c05750600060038111156131ae57fe5b816080015160038111156131be57fe5b145b15613364576001600085815260200190815260200160002060000160009054906101000a900460ff16613228576040517f08c379a000000000000000000000000000000000000000000000000000000000815260040161321f90614043565b60405180910390fd5b3373ffffffffffffffffffffffffffffffffffffffff166001600086815260200190815260200160002060000160019054906101000a900473ffffffffffffffffffffffffffffffffffffffff1673ffffffffffffffffffffffffffffffffffffffff1614806132fe5750600260038111156132a057fe5b600460003373ffffffffffffffffffffffffffffffffffffffff1673ffffffffffffffffffffffffffffffffffffffff16815260200190815260200160002060030160009054906101000a900460ff1660038111156132fb57fe5b14155b61333d576040517f08c379a000000000000000000000000000000000000000000000000000000000815260040161333490613fe3565b60405180910390fd5b8282600160008781526020019081526020016000206001019190613362929190613577565b505b5b50505050565b6040518060a00160405280600015158152602001600073ffffffffffffffffffffffffffffffffffffffff1681526020016060815260200160608152602001600060038111156133b757fe5b81525090565b6040518060600160405280600015158152602001600073ffffffffffffffffffffffffffffffffffffffff168152602001606081525090565b50805460018160011615610100020316600290046000825580601f1061341c575061343b565b601f01602090049060005260206000209081019061343a91906135f7565b5b50565b828054600181600116156101000203166002900490600052602060002090601f016020900481019282601f1061347f57805160ff19168380011785556134ad565b828001600101855582156134ad579182015b828111156134ac578251825591602001919060010190613491565b5b5090506134ba91906135f7565b5090565b60405180610c8001604052806064905b6134d661353e565b8152602001906001900390816134ce5790505090565b6040518060a00160405280600015158152602001600073ffffffffffffffffffffffffffffffffffffffff16815260200160608152602001606081526020016000600381111561353857fe5b81525090565b6040518060600160405280600015158152602001600073ffffffffffffffffffffffffffffffffffffffff168152602001606081525090565b828054600181600116156101000203166002900490600052602060002090601f016020900481019282601f106135b857803560ff19168380011785556135e6565b828001600101855582156135e6579182015b828111156135e55782358255916020019190600101906135ca565b5b5090506135f391906135f7565b5090565b61361991905b808211156136155760008160009055506001016135fd565b5090565b90565b60008135905061362b816142d0565b92915050565b600081359050613640816142e7565b92915050565b60008083601f84011261365857600080fd5b8235905067ffffffffffffffff81111561367157600080fd5b60208301915083600182028301111561368957600080fd5b9250929050565b60008135905061369f816142f7565b92915050565b6000602082840312156136b757600080fd5b60006136c58482850161361c565b91505092915050565b600080604083850312156136e157600080fd5b60006136ef8582860161361c565b925050602061370085828601613631565b9150509250929050565b6000806040838503121561371d57600080fd5b600061372b8582860161361c565b925050602061373c85828601613690565b9150509250929050565b60006020828403121561375857600080fd5b600061376684828501613631565b91505092915050565b6000806020838503121561378257600080fd5b600083013567ffffffffffffffff81111561379c57600080fd5b6137a885828601613646565b92509250509250929050565b600080600080604085870312156137ca57600080fd5b600085013567ffffffffffffffff8111156137e457600080fd5b6137f087828801613646565b9450945050602085013567ffffffffffffffff81111561380f57600080fd5b61381b87828801613646565b925092505092959194509250565b60006020828403121561383b57600080fd5b600061384984828501613690565b91505092915050565b60008060006040848603121561386757600080fd5b600061387586828701613690565b935050602084013567ffffffffffffffff81111561389257600080fd5b61389e86828701613646565b92509250509250925092565b60006138b68383613da2565b905092915050565b60006138ca8383613e6f565b905092915050565b60006138de8383613eec565b60208301905092915050565b6138f381614212565b82525050565b60006139048261413c565b61390e81856141b2565b93508360208202850161392085614102565b8060005b8581101561395c578484038952815161393d85826138aa565b94506139488361417e565b925060208a01995050600181019050613924565b50829750879550505050505092915050565b600061397982614147565b61398381856141bd565b9350836020820285016139958561410c565b8060005b858110156139d157848403895281516139b285826138aa565b94506139bd8361418b565b925060208a01995050600181019050613999565b50829750879550505050505092915050565b60006139ee82614152565b6139f881856141ce565b935083602082028501613a0a8561411c565b8060005b85811015613a465784840389528151613a2785826138be565b9450613a3283614198565b925060208a01995050600181019050613a0e565b50829750879550505050505092915050565b6000613a638261415d565b613a6d81856141df565b9350613a788361412c565b8060005b83811015613aa9578151613a9088826138d2565b9750613a9b836141a5565b925050600181019050613a7c565b5085935050505092915050565b613abf81614224565b82525050565b613ace8161426d565b82525050565b6000613adf82614173565b613ae98185614201565b9350613af981856020860161427f565b613b02816142b2565b840191505092915050565b6000613b1882614168565b613b2281856141f0565b9350613b3281856020860161427f565b613b3b816142b2565b840191505092915050565b6000613b53601383614201565b91507f55736572206e6f742072656769737465726564000000000000000000000000006000830152602082019050919050565b6000613b93603983614201565b91507f4f6e6c7920417574686f72206f662074686520706f7374206f7220616e20456460008301527f69746f722f41646d696e2063616e206564697420706f737473000000000000006020830152604082019050919050565b6000613bf9601383614201565b91507f7573657220646f6573206e6f74206578697374000000000000000000000000006000830152602082019050919050565b6000613c39601383614201565b91507f55736572204e6f742052656769737465726564000000000000000000000000006000830152602082019050919050565b6000613c79601383614201565b91507f506f737420646f6573206e6f74206578697374000000000000000000000000006000830152602082019050919050565b6000613cb9601383614201565b91507f5573657220646f6573206e6f74206578697374000000000000000000000000006000830152602082019050919050565b6000613cf9602e83614201565b91507f596f7520646f6e742068617665207065726d697373696f6e20746f207065726660008301527f6f726d2074686520616374696f6e0000000000000000000000000000000000006020830152604082019050919050565b6000606083016000830151613d6a6000860182613ab6565b506020830151613d7d60208601826138ea565b5060408301518482036040860152613d958282613b0d565b9150508091505092915050565b6000606083016000830151613dba6000860182613ab6565b506020830151613dcd60208601826138ea565b5060408301518482036040860152613de58282613b0d565b9150508091505092915050565b600060a083016000830151613e0a6000860182613ab6565b506020830151613e1d60208601826138ea565b5060408301518482036040860152613e358282613b0d565b91505060608301518482036060860152613e4f8282613b0d565b9150506080830151613e646080860182613ac5565b508091505092915050565b600060a083016000830151613e876000860182613ab6565b506020830151613e9a60208601826138ea565b5060408301518482036040860152613eb28282613b0d565b91505060608301518482036060860152613ecc8282613b0d565b9150506080830151613ee16080860182613ac5565b508091505092915050565b613ef581614263565b82525050565b613f0481614263565b82525050565b60006040820190508181036000830152613f2481856138f9565b9050613f336020830184613efb565b9392505050565b60006040820190508181036000830152613f54818561396e565b90508181036020830152613f688184613a58565b90509392505050565b60006040820190508181036000830152613f8b81856139e3565b9050613f9a6020830184613efb565b9392505050565b60006020820190508181036000830152613fbb8184613ad4565b905092915050565b60006020820190508181036000830152613fdc81613b46565b9050919050565b60006020820190508181036000830152613ffc81613b86565b9050919050565b6000602082019050818103600083015261401c81613bec565b9050919050565b6000602082019050818103600083015261403c81613c2c565b9050919050565b6000602082019050818103600083015261405c81613c6c565b9050919050565b6000602082019050818103600083015261407c81613cac565b9050919050565b6000602082019050818103600083015261409c81613cec565b9050919050565b600060208201905081810360008301526140bd8184613d52565b905092915050565b600060208201905081810360008301526140df8184613df2565b905092915050565b60006020820190506140fc6000830184613efb565b92915050565b6000819050919050565b6000819050602082019050919050565b6000819050602082019050919050565b6000819050602082019050919050565b600060649050919050565b600081519050919050565b600081519050919050565b600081519050919050565b600081519050919050565b600081519050919050565b6000602082019050919050565b6000602082019050919050565b6000602082019050919050565b6000602082019050919050565b600081905092915050565b600082825260208201905092915050565b600082825260208201905092915050565b600082825260208201905092915050565b600082825260208201905092915050565b600082825260208201905092915050565b600061421d82614243565b9050919050565b60008115159050919050565b600081905061423e826142c3565b919050565b600073ffffffffffffffffffffffffffffffffffffffff82169050919050565b6000819050919050565b600061427882614230565b9050919050565b60005b8381101561429d578082015181840152602081019050614282565b838111156142ac576000848401525b50505050565b6000601f19601f8301169050919050565b600481106142cd57fe5b50565b6142d981614212565b81146142e457600080fd5b50565b600481106142f457600080fd5b50565b61430081614263565b811461430b57600080fd5b5056fea365627a7a72315820292bf5481da4a0d17ce1d48a683527a2e589fa029a08f8ee19068906f13e0f166c6578706572696d656e74616cf564736f6c63430005100040",
  "source": "pragma solidity >=0.4.22 <0.9.0;\npragma experimental ABIEncoderV2;\n\n\ncontract DBlogger {\n    // Defines a new type with two fields.\n\n    enum Role {Admin, Editor, Author, Subscriber}\n\n    struct User {\n        bool isValue;\n        address id;\n        string name;\n        string profile_hash;\n        Role role;\n    }\n\n    struct Post {\n        bool isValue;\n        address author;\n        string content_hash;\n    }\n\n    uint256 internal newPostCounter;\n    mapping(uint256 => Post) posts;\n    uint256[] postIndexs;\n    address[] userIndexs;\n\n    mapping(address => User) users;\n\n    /**************************** Constructor **************************/\n    constructor() public {\n        userIndexs.push(msg.sender);\n        users[msg.sender] = User({\n            isValue: true,\n            id: msg.sender,\n            name: \"Admin\",\n            profile_hash: \"\",\n            role: Role.Admin\n        });\n    }\n\n    /**************************** Modifiers ****************************/\n\n    modifier onlyGuest() {\n        if (!users[msg.sender].isValue) {\n            _;\n        }\n    }\n\n    modifier onlyUserOrAbove() {\n        if (users[msg.sender].isValue) {\n            _;\n        }\n    }\n\n    modifier onlyAuthorOrAbove() {\n        User memory user = users[msg.sender];\n        if (user.isValue) {\n            if (\n                user.role == Role.Author ||\n                user.role == Role.Editor ||\n                user.role == Role.Admin\n            ) {\n                _;\n            }\n        }\n    }\n\n    modifier onlySelfOrAdmin(address id) {\n        User memory user = users[msg.sender];\n        if (user.isValue) {\n            if (msg.sender == id || user.role == Role.Admin) {\n                _;\n            }\n        }\n    }\n    modifier onlyAdmin() {\n        User memory user = users[msg.sender];\n        if (user.isValue) {\n            if (user.role == Role.Admin) {\n                _;\n            }\n        }\n    }\n\n    /**************************** Public Methods ***********************/\n\n    /************* Insert Operations ***********/\n\n    function addPost(\n        string calldata _content_hash\n    ) external onlyAuthorOrAbove returns (uint256 postID) {\n        postID = newPostCounter++; // campaignID is return variable\n        // Creates new struct and saves in storage. We leave out the mapping type.\n        postIndexs.push(postID);\n        posts[postID] = Post({\n            isValue: true,\n            author: users[msg.sender].id,\n            content_hash:_content_hash\n        });\n    }\n\n    function registerUser(string calldata _name, string calldata _profile_hash)\n        external\n        onlyGuest\n    {\n        userIndexs.push(msg.sender);\n        users[msg.sender] = User({\n            isValue: true,\n            id: msg.sender,\n            name: _name,\n            profile_hash: _profile_hash,\n            role: Role.Subscriber\n        });\n    }\n\n    function makeAdmin(address id) external onlyAdmin {\n        require(users[id].isValue, \"User Not Registered\");\n        users[id].role = Role.Admin;\n    }\n\n    /************* Update Operations ***********/\n\n    function editPost(\n        uint256 postID,\n        string calldata _content_hash\n    ) external onlyAuthorOrAbove {\n        require(posts[postID].isValue, \"Post does not exist\");\n        require(\n            (posts[postID].author == msg.sender ||\n                users[msg.sender].role != Role.Author),\n            \"Only Author of the post or an Editor/Admin can edit posts\"\n        );\n        posts[postID].content_hash = _content_hash;\n    }\n\n    function editUser(string calldata _name, string calldata _profile_hash)\n        external\n        onlyUserOrAbove\n    {\n        users[msg.sender].name = _name;\n        users[msg.sender].profile_hash = _profile_hash;\n    }\n\n    function editUserRole(address id, Role _role) external onlyAdmin {\n        require(users[id].isValue == false, \"User not registered\");\n        if (users[id].role == Role.Admin) {\n            require(\n                id == msg.sender,\n                \"You dont have permission to perform the action\"\n            );\n        }\n        users[id].role = _role;\n    }\n\n    /************* Delete Operations ***********/\n\n    function deletePost(uint256 postID) external onlyAuthorOrAbove {\n        require(posts[postID].isValue, \"Post does not exist\");\n        Post memory post = posts[postID];\n        User memory sender = users[msg.sender];\n        require(\n            (post.author == msg.sender || sender.role != Role.Author),\n            \"Only Author of the post or an Editor/Admin can edit posts\"\n        );\n        delete posts[postID];\n        // uint256 index = postIndexs.length;\n        // for (uint256 i = 0; i < postIndexs.length - 1; i++) {\n        //     if (postIndexs[i] == postID) index = i;\n        //     if (index < postIndexs.length - 1) {\n        //         postIndexs[i] = postIndexs[i + 1];\n        //     }\n        // }\n        // if (index < postIndexs.length) {\n        //     delete postIndexs[postIndexs.length - 1];\n        // }\n        // postIndexs.pop();\n    }\n\n    function deleteUser(address id) public {\n        require(\n            id == msg.sender || users[msg.sender].role == Role.Admin,\n            \"You dont have permission to perform the action\"\n        );\n        if (users[msg.sender].role == Role.Admin) {\n            require(\n                id == msg.sender,\n                \"You dont have permission to perform the action\"\n            );\n        }\n        User memory user = users[id];\n        require(user.isValue, \"user does not exist\");\n        delete users[id];\n        // uint256 index = userIndexs.length;\n        // for (uint256 i = 0; i < userIndexs.length - 1; i++) {\n        //     if (userIndexs[i] == id) index = i;\n        //     if (index < postIndexs.length - 1) {\n        //         userIndexs[i] = userIndexs[i + 1];\n        //     }\n        // }\n        // if (index < userIndexs.length) {\n        //     delete userIndexs[userIndexs.length - 1];\n        // }\n        // userIndexs.pop();\n    }\n\n    /************* View Operations ***********/\n    function getMyProfile() public view returns (User memory user) {\n        require(users[msg.sender].isValue, \"User not registered\");\n        user = users[msg.sender];\n        return user;\n    }\n\n    function getUser(address id) public view returns (User memory) {\n        return (users[id]);\n    }\n\n    function getAllUser() public view returns (User[] memory, uint256 count) {\n        User[] memory userList = new User[](userIndexs.length);\n        for (uint256 i = 0; i < userIndexs.length; i++) {\n            userList[i] = users[userIndexs[i]];\n        }\n        return (userList, userIndexs.length);\n    }\n\n    function getPost(uint256 postID) public view returns (Post memory) {\n        return posts[postID];\n    }\n\n    function getAllPost()\n        public\n        view\n        returns (Post[] memory, uint256[] memory)\n    {\n        Post[] memory postList = new Post[](postIndexs.length);\n        uint256[] memory Ids = new uint256[](postIndexs.length);\n        for (uint256 i = 0; i < postIndexs.length; i++) {\n            postList[i] = posts[postIndexs[i]];\n            Ids[i] = postIndexs[i];\n        }\n        return (postList, Ids);\n    }\n\n    function getAllPostAuthor(address id, uint256 startIndex)\n        public\n        view\n        returns (Post[100] memory, uint256 nextIndex)\n    {\n        require(users[id].isValue, \"User does not exist\");\n\n        Post[100] memory postList;\n        nextIndex = 0;\n        uint256 count = 0;\n        if (startIndex >= postIndexs.length) return (postList, nextIndex);\n        for (uint256 i = 0; i < postIndexs.length; i++) {\n            if (i >= startIndex && posts[postIndexs[i]].author == id) {\n                postList[i] = posts[postIndexs[i]];\n                count++;\n            }\n            nextIndex = i;\n            if (count >= 100) break;\n        }\n        nextIndex++;\n        if (nextIndex >= postIndexs.length) nextIndex = 0;\n        return (postList, nextIndex);\n    }\n\n    /*************************** Enum to String *******************************/\n    function getRoleName(Role role) public pure returns (string memory) {\n        if (role == Role.Admin) return \"Admin\";\n        if (role == Role.Editor) return \"Editor\";\n        if (role == Role.Author) return \"Author\";\n        if (role == Role.Subscriber) return \"Subscriber\";\n    }\n}\n",
  "sourcePath": "/Users/anirbankar/Repos/DBlogger/contracts/DBlogger.sol",
  "compiler": {
    "name": "solc",
    "version": "0.5.16+commit.9c3226ce.Emscripten.clang"
  },
  "schemaVersion": "3.4.1",
  "updatedAt": "2021-05-15T20:27:57.096Z",
  "networkType": "ethereum",
  "devdoc": {
    "methods": {}
  },
  "userdoc": {
    "methods": {
      "addPost(string)": {
        "notice": "*********** Insert Operations **********"
      },
      "constructor": "************************** Constructor *************************",
      "deletePost(uint256)": {
        "notice": "*********** Delete Operations **********"
      },
      "editPost(uint256,string)": {
        "notice": "*********** Update Operations **********"
      },
      "getMyProfile()": {
        "notice": "*********** View Operations **********"
      },
      "getRoleName(uint8)": {
        "notice": "************************* Enum to String ******************************"
      }
    }
  }
}